:100000000C9434000C9451000C9451000C94510049
:100010000C9451000C9451000C9451000C9451001C
:100020000C9451000C9451000C9451000C94490212
:100030000C9451000C9451000C9451000C945100FC
:100040000C9451000C9451000C9451000C945100EC
:100050000C9451000C9451000C9451000C945100DC
:100060000C9451000C94510011241FBECFEFD8E026
:10007000DEBFCDBF11E0A0E0B1E0E2EAF5E002C0F2
:1000800005900D92AC30B107D9F711E0ACE0B1E0CA
:1000900001C01D92AD32B107E1F70E9476020C94C7
:1000A000CF020C940000809122018F5F8093220187
:1000B000809122018F7090E00A972CF080912201AC
:1000C0008A5F8093220180912201803308F444C02A
:1000D00010922201809121018F5F809321018091F4
:1000E00021018F7090E00A972CF0809121018A5FA6
:1000F0008093210180912101803670F110922101BD
:10010000809120018F5F80932001809120018F706A
:1001100090E00A972CF0809120018A5F8093200163
:10012000809120018036C0F01092200180911F0143
:100130008F5F80931F0180911F018F7090E00A975D
:100140002CF080911F018A5F80931F0180911F0115
:10015000843210F010921F010895809103012091C4
:10016000220130E1839FC00111242F70282B20939E
:100170002301809104012091220130E1839FC0017D
:10018000112422952F70282B2093240180910501A2
:100190002091210130E1839FC00111242F70282B71
:1001A00020932501809106012091210130E1839F58
:1001B000C001112422952F70282B209326018091B5
:1001C00007012091200130E1839FC00111242F708D
:1001D000282B20932701809108012091200130E1F4
:1001E000839FC001112422952F70282B2093280172
:1001F0008091090120911F0130E1839FC0011124EA
:100200002F70282B2093290180910A0120911F0132
:1002100030E1839FC001112422952F70282B209359
:100220002A018CEF80932B018FEB80932C0110928D
:100230001E0110921B0180911B0190911E018830BC
:1002400078F4E0911B01F0E0ED5DFE4F808189279D
:1002500080931E0180911B018F5F80931B01EBCF68
:1002600080911E0182958F70892780931E01909145
:100270001E0180911E0186958695892780931E0117
:1002800090911E0180911E018695892780931E0101
:1002900080911E0180FF05C08091260188608093B7
:1002A00026010895809102018130A9F5E0911C0199
:1002B000F0E0ED5DFE4F808140911D0190E027E070
:1002C00030E0241B310902C0880F991F2A95E2F7FC
:1002D0008078992726E0959587952A95E1F7809370
:1002E000010180911D018F5F80931D0180911D018F
:1002F000883088F080911C018F5F80931C011092E0
:100300001D0180911C018A3030F010921C010E9466
:1003100053000E94AD0080910201811103C082E070
:10032000809301018091020191E08927809302016D
:100330000895809118018F5F8093180180911801B2
:10034000803A10F4109218010895809110018130C4
:1003500029F480910F018F5F80930F018091140128
:1003600081110AC080911001811106C086B185FB00
:10037000882780F980931701809114018130A9F5B5
:1003800080911001811131C086B185FB882780F9E9
:10039000809317019091170180911601892780930E
:1003A000110180911101817080930F0180910C01E6
:1003B00090E0880F991F80930C0190910C0180911F
:1003C0000D01881F8827881F892B80930C0180913D
:1003D0000D0190E0880F991F80930D0190910D0100
:1003E00080910F01892B80930D018091140191E080
:1003F000892780931401089580911301811148C0C9
:1004000080911201813011F40E94A5019091150193
:100410009130F9F48091120181111BC086B185FBE6
:10042000882780F980931701209117018091160188
:1004300082278093110180911101811105C0909351
:10044000120110921401089580911101813001F57B
:100450001BC08091150181111BC080911201811177
:1004600017C086B185FB882780F98093170190918A
:100470001701809116018927809311018091110144
:10048000813031F48093150180911701809316011A
:1004900008951F920F920FB60F9211242F933F933E
:1004A0004F935F936F937F938F939F93AF93BF937C
:1004B000EF93FF9395B180910101892785B90E943F
:1004C00052010E9499010E94FC01FF91EF91BF919E
:1004D000AF919F918F917F916F915F914F913F91DC
:1004E0002F910F900FBE0F901F90189583B78160CA
:1004F00083BF85B7806685BF85B790E2892785BFB2
:1005000080917F00836080937F0080917E00809344
:100510007E0080B7806880BF83E883BD1092800032
:10052000809181008860809381008091810081604A
:100530008093810080916F00826080936F0087E4D8
:1005400090E190938900809388001092850010922A
:100550008400219A299887B187B9459886B180721D
:1005600080931601809116018295869587708093FD
:10057000160180911601817080931601789413BC46
:1005800095B180910101892785B90E94520183B7F5
:10059000816083BF889583B78E7F83BFF8CFF8943F
:0205A000FFCF8B
:0C05A200470201020406080103050700DF
:00000001FF
